:100000000C942A000C942B010C9447000C9447008C
:100010000C9447000C9447000C9447000C94470044
:100020000C9447000C9447000C9447000C94470034
:100030000C9447000C9447000C9447000C94470024
:100040000C9447000C9447000C9447000C94470014
:100050000C94470011241FBECFE5D8E0DEBFCDBF12
:1000600010E0A0E6B0E0E0E3FAE002C005900D92F7
:10007000A236B107D9F720E0A2E6B0E001C01D9298
:10008000A836B207E1F70E94BE010C9416050C9445
:100090000000982F9695969596958770913021F14E
:1000A00030F09230F1F1933009F458C00895613086
:1000B00069F44AB321E030E0B90102C0660F771F4E
:1000C0008A95E2F7CB01842B8ABB08954AB321E0DD
:1000D00030E0B90102C0660F771F8A95E2F7CB01C5
:1000E000809584238ABB0895613069F447B321E089
:1000F00030E0B90102C0660F771F8A95E2F7CB01A5
:10010000842B87BB089547B321E030E0B90102C0DA
:10011000660F771F8A95E2F7CB018095842387BB12
:100120000895613069F444B321E030E0B90102C0C0
:10013000660F771F8A95E2F7CB01842B84BB089565
:1001400044B321E030E0B90102C0660F771F8A9501
:10015000E2F7CB018095842384BB0895613069F474
:1001600041B321E030E0B90102C0660F771F8A95E4
:10017000E2F7CB01842B81BB089541B321E030E04D
:10018000B90102C0660F771F8A95E2F7CB0180950F
:10019000842381BB08950F931F93CF93C62F8A01A9
:1001A000813001F118F08230C9F14DC060E08AE081
:1001B0000E94490085B78C7F85BFC33021F485B785
:1001C000836085BF0BC0C23021F485B7826085BFD4
:1001D00005C0C13019F485B7816085BF8BB78064D5
:1001E0008BBF31C060E088E10E94490085B7837F02
:1001F00085BFC33021F485B78C6085BF0BC0C2308A
:1002000021F485B7886085BF05C0C13019F485B772
:10021000846085BF8BB780688BBF15C060E089E1C3
:100220000E94490085B7837F85BFC33021F484B71E
:10023000806484BF05C0C23019F485B78F7B85BF49
:100240008BB780628BBF1093670000936600CF91DD
:100250001F910F9108951F920F920FB60F921124C4
:100260002F933F934F935F936F937F938F939F93BE
:10027000AF93BF93EF93FF93E0916600F091670017
:100280000995FF91EF91BF91AF919F918F917F91D0
:100290006F915F914F913F912F910F900FBE0F90F3
:1002A0001F901895CF92DF92EF92FF92CF939B0110
:1002B000AC0111B860E072E18AE790E00E94F404BA
:1002C00069017A0180E1C81AD108E108F108A701A3
:1002D00096015695479537952795C1E00EC0CC0FEE
:1002E000CC0F2C2F30E0220F331F032E000C440BB9
:1002F000550BC701B6010E94F4042F3F310541059B
:10030000510519F010F0C13450F3C43061F018F405
:10031000C13031F013C0C03151F0C03461F00EC0B3
:1003200081B181B90BC081B1816081B907C081B150
:10033000826081B903C081B1836081B920B984E052
:1003400086BFCF91FF90EF90DF90CF90089584EA21
:1003500086BF06B607FEFDCF089584E986BF0895DF
:1003600083B984E886BF06B607FEFDCF089584E80A
:1003700086BF06B607FEFDCF83B108950E948002B6
:1003800080E00E94870281E00E94B80243E060E0C2
:1003900070E080EE90E40E94DB0281E00E94BD02EA
:1003A00083E00E94E8028823D9F30E94C2028130D0
:1003B000B9F70E9413030E94C802F2CFCF93DF93D4
:1003C000D82FC62F0E94A701809160008E7F0E94C7
:1003D000B0018D2F0E94B0018C2F0E94B0010E94AD
:1003E000AD01DF91CF910895FF920F931F93CF93AB
:1003F000DF93F82EC42FD52F162F072F0E94A701A9
:10040000809160008E7F0E94B0018F2D0E94B0010C
:10041000802F0E94B001812F0E94B0018D2F0E9479
:10042000B0018C2F0E94B0010E94AD01DF91CF91ED
:100430001F910F91FF900895CF93C82F0E94A7019D
:10044000809160008E7F0E94B0018C2F0E94B001CD
:100450000E94AD010E94A7018091600081600E940E
:10046000B0010E94B701C82F0E94AD018C2FCF911F
:100470000895CF92DF92EF92FF92F82E0E94A7018B
:10048000809160008E7F0E94B0018F2D0E94B0018C
:100490000E94AD010E94A7018091600081600E94CE
:1004A000B0010E94B701C82ED12CE12CF12CFC2CFC
:1004B000EE24DD24CC240E94B70190E0A0E0B0E05F
:1004C000DC0199278827C82AD92AEA2AFB2A0E9410
:1004D000B70190E0A0E0B0E0BA2FA92F982F8827AD
:1004E000C82AD92AEA2AFB2A0E94B701C82A0E94F0
:1004F000AD01C701B601FF90EF90DF90CF90089556
:1005000060EA76E881E090E00E945201089582302E
:1005100071F018F4882331F00895843099F0883010
:10052000E1F0089560E084E00E94DE01089562E059
:1005300084E00E94DE0149E453E063E080E00E9431
:10054000CB00089564E084E00E94DE014AE353E0BA
:1005500062E080E00E94CB00089568E084E00E94A1
:10056000DE014FE253E061E080E00E94CB0008959D
:10057000682F85E00E94DE010895682F86E00E94C2
:10058000DE01089587E00E941C02811181E0089538
:1005900060E087E00E94DE01089520E030E04AE755
:1005A00054E40E9487040E94CA03AB01BC0188E0A6
:1005B0000E94F4010895CF93C42F0E94CD024C2FC6
:1005C00050E060E070E08CE00E94F401CF9108956B
:1005D000CF93C82F8DE00E941C02C23069F018F43E
:1005E000C13031F015C0C33059F0C43069F010C0CB
:1005F000882381F080E015C080FD0EC080E011C02E
:1006000081FD0CC080E00DC082FD0AC080E009C001
:1006100080E007C081E005C081E003C081E001C047
:1006200081E0CF91089586E10E9439020E94F9038A
:1006300020E030E04AE754E40E94580360936200EF
:1006400070936300809364009093650060916200F2
:1006500070916300809164009091650008950E94FC
:10066000130360936200709363008093640090931F
:10067000650008950E941303609362007093630005
:10068000809364009093650064E084E00E94DE0142
:1006900008950E9413036093620070936300809337
:1006A00064009093650062E084E00E94DE0108959A
:1006B0000E946C030C944D040E94460458F00E9462
:1006C0003F0440F029F45F3F29F00C9436045111A7
:1006D0000C9481040C943C040E945E0468F39923FA
:1006E000B1F3552391F3951B550BBB27AA2762172E
:1006F0007307840738F09F5F5F4F220F331F441F3B
:10070000AA1FA9F335D00E2E3AF0E0E832D091506E
:100710005040E695001CCAF72BD0FE2F29D0660F5B
:10072000771F881FBB1F261737074807AB07B0E89E
:1007300009F0BB0B802DBF01FF2793585F4F3AF0A4
:100740009E3F510578F00C9436040C9481045F3F71
:10075000E4F3983ED4F3869577956795B795F7952A
:100760009F5FC9F7880F911D9695879597F9089512
:10077000E1E0660F771F881FBB1F621773078407AE
:10078000BA0720F0621B730B840BBA0BEE1F88F7BD
:10079000E09508950E94660488F09F5798F0B92F5D
:1007A0009927B751B0F0E1F0660F771F881F991FA6
:1007B0001AF0BA95C9F714C0B13091F00E948004C4
:1007C000B1E008950C948004672F782F8827B85FD4
:1007D00039F0B93FCCF3869577956795B395D9F7FE
:1007E0003EF490958095709561957F4F8F4F9F4F08
:1007F0000895E89409C097FB3EF490958095709514
:1008000061957F4F8F4F9F4F9923A9F0F92F96E95C
:10081000BB279395F695879577956795B795F111D1
:10082000F8CFFAF4BB0F11F460FF1BC06F5F7F4F6E
:100830008F4F9F4F16C0882311F096E911C0772380
:1008400021F09EE8872F762F05C0662371F096E889
:10085000862F70E060E02AF09A95660F771F881F58
:10086000DAF7880F9695879597F9089597F99F6716
:1008700080E870E060E008959FEF80EC0895002428
:100880000A941616170618060906089500240A94F5
:1008900012161306140605060895092E0394000C7B
:1008A00011F4882352F0BB0F40F4BF2B11F460FF0A
:1008B00004C06F5F7F4F8F4F9F4F089557FD905833
:1008C000440F551F59F05F3F71F04795880F97FB14
:1008D000991F61F09F3F79F08795089512161306CE
:1008E0001406551FF2CF4695F1DF08C016161706FD
:1008F0001806991FF1CF8695710561050894089532
:10090000E894BB2766277727CB0197F908950E94C3
:100910009A040C944D040E943F0438F00E9446044F
:1009200020F0952311F00C9436040C943C0411240F
:100930000C9481040E945E0470F3959FC1F3950F9F
:1009400050E0551F629FF001729FBB27F00DB11D53
:10095000639FAA27F00DB11DAA1F649F6627B00DE3
:10096000A11D661F829F2227B00DA11D621F739FCC
:10097000B00DA11D621F839FA00D611D221F749FDA
:100980003327A00D611D231F849F600D211D822F21
:10099000762F6A2F11249F5750409AF0F1F0882348
:1009A0004AF0EE0FFF1FBB1F661F771F881F915075
:1009B0005040A9F79E3F510580F00C9436040C94EA
:1009C00081045F3FE4F3983ED4F38695779567956D
:1009D000B795F795E7959F5FC1F7FE2B880F911D9F
:1009E0009695879597F90895A1E21A2EAA1BBB1B2D
:1009F000FD010DC0AA1FBB1FEE1FFF1FA217B307EB
:100A0000E407F50720F0A21BB30BE40BF50B661F00
:100A1000771F881F991F1A9469F7609570958095C4
:100A200090959B01AC01BD01CF010895F894FFCFD3
:020A300065005F
:00000001FF
